:020000040000fa
:0800000000a404000000000050
:020000040000fa
:080400000040da000000fe00dc
:020000040000fa
:020000040001f9
:0457f00013ff0000a3
:020000040000fa
:020000040001f9
:0457f400c0fc0000f5
:020000040000fa
:020000040001f9
:0457f800ae3b0000c4
:020000040000fa
:020000040001f9
:0457fc00601f00002a
:020000040000fa
:1000080000020000000200000002000000020000e0
:1000180000020000000200000002000000020000d0
:1000280000020000000200000002000000020000c0
:1000380000020000000200000002000000020000b0
:020000040000fa
:020000040000fa
:020000040001f9
:104800000f8d20004227a9004507a90042a7ae004e
:10481000feff3700f0ff2f006019880000002a001b
:10482000703a880040852400303288003635800098
:1048300037368000a606a800a626a900a646a8002e
:10484000a666a900a686a900c606a800c626a900d5
:10485000c646a800c666a900c686a900c082a900ef
:10486000c482a8000006eb0083000700230020009c
:104870001a0120008a000700100cb100030032006a
:104880008301e90076003200f9ff3700600f200055
:104890008f000700400020008d000700000020006e
:1048a0008b000700b0042000890007000007eb0020
:1048b0007a000700900188007800070003e1b70044
:1048c0007600070002e1b7000281bf008002780095
:1048d0000002780071000700800678006f00070072
:1048e0008001780000047800028020006b0007003f
:1048f000005978008301e900fcff3a000e04e00053
:1049000003003200e004200071000700e7ff3700d9
:104910000d10a6000f0037003200e2000d003a0033
:104920000201e2000b003a000280200040c0b30008
:104930000059780000c0b3000059780040cab300a5
:10494000005978000059eb0000c0b300005978000e
:104950000059eb00028020000d00a7000500370081
:104960000d10a70005003700500520005800070073
:10497000ceff3700fcff2f00caff370091018000f7
:104980000500780008082000110009004888d800b8
:10499000881420000800e10006003300f81420000d
:1049a0000040e1000300330000052000480007003c
:1049b000beff3700050278000c00a6000400370097
:1049c000850abb00200424001a0007000006eb0043
:1049d00003042000b2cabb00b25abb00b25abb00eb
:1049e0008301e900fbff3a001000240011000700da
:1049f000030420000280200014c0ba003204e10049
:104a000009003a003440ba003204e10006003a00de
:104a10003440ba003204e10003003a008301e900a7
:104a2000f5ff3a009fff37006005200028000700cf
:104a30009eff3700003b880050052000303b880077
:104a4000a00a2000303b880061e7a80000000000b9
:104a50000000000061e7af00feff37000000060025
:104a600036358800373688000f8d20000800070093
:104a70000221ef0060ff37003062a8002002200012
:104a8000c011880031e2a8003342a80000000600ef
:104a900087c0a90087e0a900000006001a012000d5
:104aa0008005eb000060fe003202ae00030037001c
:104ab000b011800000074700000006008b05e900e8
:104ac000f8ff3a000a05e900f5ff3a00e4ff370075
:104ad00034a2b70000000000000000003302ae0066
:084ae000feff37000000060094
:020000040000fa
:020000040001f9
:0847f8000000ff000000ff00bb
:00000001FF
