:020000040000fa
:080000000002040000000000f2
:020000040000fa
:100400000fbe2100007f22000001880000000000d4
:100410000c000700a0202600010020001f0007009c
:10042000000020000000e000020032000000020096
:100430000000000048180200000000000040da0040
:100440000000fe004440a900405e20000000e000e3
:100450000300320000002000a00188004440a800f2
:1004600000000600f03fb1000180b1000600350039
:10047000ee03090000000000403fb1000180b10020
:10048000fbff3d001000b000203fb000020035002f
:1004900000800900000000000000060091018800b3
:1004a000800078000000eb0015003700e28040007b
:1004b00032a0b4009101ba00e280400032a0b40042
:1004c0009102ba00e280400032a0b4000002eb00ca
:1004d000472bde00f507b200602ce10004003a0073
:1004e0000059eb008301e900fdff3e0004003700e6
:1004f0006128e100010032000082eb0004000700e7
:100500001101ba000200e000e8ff3a000000060016
:100510003159ba008301e9000c0032002159ba00b8
:100520008301e900080032000400e00003003a0003
:10053000e280400032a0b400f5ff370011d9ba00c4
:100540008301e900faff3a008100e800e180400001
:1005500032a0b4000000060000000000000000000f
:1005600000000000000000003200f8009101880047
:100570008002780062004000e08048003549ba00ff
:100580003204e0000410a700100032008301e900eb
:100590000e0032002549ba003204e0000410a70022
:1005a0000a0032008301e900080032000408a300b9
:1005b000eeff320015c9ba003204e0000410a700b3
:1005c000020032008301e900e8ff3a003200f9003e
:1005d000000006003200f80091018800023b88000c
:1005e0000008bb000500fc0051052000313b8800dd
:1005f000a10a2000313b880061e7a800000000004c
:10060000000000003200f900000006000400a10014
:10061000010037000400a0003200f80091018800ba
:1006200011002400013b8800f10f20003208bb00bc
:100630000400a700b20078000198bb008301e90024
:10064000faff3a00680151000400a7006801510058
:10065000680050001208bb00e2ff3700f30f2000d3
:100660003200f8009101880031002400013b88002d
:100670000208bb000388bb00daff37003200f80035
:10068000003b8800d7ff3700889fbe0080047800b9
:10069000909e80000000e00003003a001000070078
:1006a0000000e0000a003500909e80000900e00094
:1006b00002003a00000478000600370000047800c9
:1006c00009004000060007000000e00001003d00b6
:1006d0000084eb00080078004f04be000000060014
:1006e000800078000000e00004003a000041210092
:1006f000909e880001017800060037000081eb0021
:1007000000be2100808f500002003e00919e8800b4
:100710000001eb0002007800000006006022b80033
:10072000060220000000d0008180d2000482d200a6
:100730008582d2000000a0000202520083825a008b
:10074000030031000202420083824a000000a1003f
:100750000603e900f3ff3a0000000600a11088003c
:10076000b01088000000060016c2bf000008a300f9
:10077000fdff3a0016c2bf000018a300faff3a00be
:1007800016c2bf000028a300f7ff3a0016c2bf0040
:100790000038a300f4ff3a0016c2bf000048a300cf
:1007a000f1ff3a0019c2bf000068a300eeff3a0053
:1007b000000006001602a800000006000080fb00f2
:1007c0009010880018c2bf0001c8b300014060004b
:1007d0000080fb000000e9004f00de000000e9009f
:1007e000000006001642a800000006001662a800dd
:1007f00016c2bf000038a300fdff3a0018c2a900ce
:10080000801080000080fb0000000600810178005d
:100810000002eb000b003700e44078000104e00028
:10082000030032000402e80093cf500004003200bd
:100830008180fb001380fb00008050000000060058
:100840008301e800820f5200f3ff3a000000050028
:10085000800078003004e000feff3a000100500004
:100860000000e900000006000001780000c2b300ab
:10087000010037000201e8009240780080cf50006c
:10088000fcff3200e9cf5000faff3200d0c2b300c3
:1008900080cf500003003a000201e80014c0b3000a
:1008a000050037000042eb00b0c2b30080cf50001b
:1008b00001003a000201e8008000eb0005fd2f0076
:1008c000040037006a08b90000804100850040003c
:1008d0000201e8009201fb0005804100e90f500091
:1008e000f8ff36000404e000010032008100ea0055
:1008f0000100780000000600000378008002780004
:10090000020278008001eb00080037000402e900d1
:1009100063c07800805a78008301e8000004e0009a
:1009200002003a008000eb0006003700828f510081
:10093000f6ff3a00fbff37000040eb0080f07a0042
:100940008100e800848f5000fbff3a000600780029
:1009500000000600889fbe008a9fbe008c9fbe00dc
:1009600000017800a13c21001100e0000b003a00da
:10097000e03c2100509e8800309e8800719e8800d7
:10098000419e8800214090000004a000a0409800f3
:10099000614090000004a000e0409800e7004100a2
:1009a000c208de00c20cdd00439e80000d41210024
:1009b00000be21000d05500022002000811f78009c
:1009c000110009000205d80000067800cf00780069
:1009d000c308dd00e4854000359e80008000eb0008
:1009e00007412100a63c210001003700800178006a
:1009f000234090000008a300020032000a003700e4
:100a00009409780013027800244090000008a300a5
:100a1000fbff320009814100820f520002003900c1
:100a2000830f51004300310013007800830f500002
:100a3000eeff3e00870f500002003900860f500085
:100a4000eaff3900858f51004b003a00860f5000b5
:100a500049003a008100e800e18f5000e3ff3600d2
:100a60008c8f5400040036008a8f5400020031003d
:100a70000b04780012003700614ab8006151b900d8
:100a8000b0ff2f00010020000200500083805800ba
:100a9000800f5200818f5a0002003500090478004f
:100aa000070037000d80540032be210002004000d4
:100ab000110009000a80d8000a80b90000047800fb
:100ac00008007800f0fe070080017800e10f400088
:100ad00029003200329e8000000978006400410045
:100ae000a2409000808f5100020032000104a0005b
:100af000010037000104a1002141980088804100d5
:100b0000e480500081097800319e8800a23c2100d9
:100b100082087800214090000004a000a0409800c6
:100b2000234090000004a100a041980082017800b9
:100b3000a9ff3700429e8800820f5200080036004d
:100b400012007800413c2100a242900085487800c4
:100b5000109e8800040978000040eb0020419800b6
:100b600082097800234090000004a000a041980072
:100b700064804100010037000000eb004f06be001a
:100b80004f05be004f04be00000006006400500088
:100b9000409e8800a04090000104a10021409800e0
:100ba00000000600889fbe008a9fbe0000057800f6
:100bb000e401500013001000c285de0023409000c5
:100bc0000008a30004003200439e880023409000e8
:100bd0000004a100a0419800010078005dff07001b
:100be000000478000000e000170032008a0f500077
:100bf0001500320060b8970008005000c284de0083
:100c0000898f550001003600890578004259dd00c2
:100c10008a00780008007800160007008a0f540048
:100c2000090031004248dd00000044008a0f5000f6
:100c3000050036000a00500000004400129e8000ab
:100c4000239e80000288be00080078004f05be0089
:100c50004f04be00000006008001eb0002003700d8
:100c6000817178008301e800828f5100fcff3a0017
:100c7000000006008001eb000200370061f07900ff
:100c80008301e800828f5100fcff3a00000006005b
:020000040000fa
:10000800985b0000985b0000985b0000985b00001c
:10001800985b0000985b0000985b0000985b00000c
:10002800985b0000985b0000985b0000985b0000fc
:10003800985b0000985b0000985b0000985b0000ec
:10004800e82c0000985b0000985b0000985b0000bb
:10005800985b0000985b0000985b0000985b0000cc
:10006800f62a0000985b0000985b0000985b00008f
:10007800985b0000985b0000985b0000985b0000ac
:10008800985b0000985b0000985b0000985b00009c
:10009800985b0000985b0000b22b0000985b0000a2
:1000a800985b0000985b0000985b0000985b00007c
:1000b800985b0000985b0000985b0000985b00006c
:1000c800985b0000985b0000985b0000985b00005c
:1000d800985b0000985b0000985b0000985b00004c
:1000e800985b0000985b0000985b0000985b00003c
:1000f800985b0000985b0000985b0000985b00002c
:10010800985b0000985b0000985b0000985b00001b
:10011800985b0000985b0000985b0000985b00000b
:10012800985b0000985b0000985b0000985b0000fb
:10013800985b0000985b0000985b0000985b0000eb
:10014800985b0000985b0000985b0000985b0000db
:10015800985b0000985b0000985b0000985b0000cb
:10016800985b0000985b0000985b0000985b0000bb
:10017800985b0000985b00000e450000985b00004b
:10018800985b0000985b0000985b0000985b00009b
:10019800985b0000985b0000985b0000985b00008b
:1001a800985b0000985b0000985b0000985b00007b
:1001b800985b0000985b0000985b0000985b00006b
:1001c800985b0000985b0000985b0000985b00005b
:1001d800985b0000985b0000985b0000985b00004b
:1001e800985b0000985b0000985b0000985b00003b
:0801f800985b0000985b000019
:020000040000fa
:10020800985b0000985b0000985b0000985b00001a
:10021800985b0000985b0000985b0000985b00000a
:10022800985b0000985b0000985b0000985b0000fa
:10023800985b0000985b0000985b0000985b0000ea
:10024800e82c0000985b0000985b0000985b0000b9
:10025800985b0000985b0000985b0000985b0000ca
:10026800f62a0000985b0000985b0000985b00008d
:10027800985b0000985b0000985b0000985b0000aa
:10028800985b0000985b0000985b0000985b00009a
:10029800985b0000985b0000b22b0000985b0000a0
:1002a800985b0000985b0000985b0000985b00007a
:1002b800985b0000985b0000985b0000985b00006a
:1002c800985b0000985b0000985b0000985b00005a
:1002d800985b0000985b0000985b0000985b00004a
:1002e800985b0000985b0000985b0000985b00003a
:1002f800985b0000985b0000985b0000985b00002a
:10030800985b0000985b0000985b0000985b000019
:10031800985b0000985b0000985b0000985b000009
:10032800985b0000985b0000985b0000985b0000f9
:10033800985b0000985b0000985b0000985b0000e9
:10034800985b0000985b0000985b0000985b0000d9
:10035800985b0000985b0000985b0000985b0000c9
:10036800985b0000985b0000985b0000985b0000b9
:10037800985b0000985b00000e450000985b000049
:10038800985b0000985b0000985b0000985b000099
:10039800985b0000985b0000985b0000985b000089
:1003a800985b0000985b0000985b0000985b000079
:1003b800985b0000985b0000985b0000985b000069
:1003c800985b0000985b0000985b0000985b000059
:1003d800985b0000985b0000985b0000985b000049
:1003e800985b0000985b0000985b0000985b000039
:0803f800985b0000985b000017
:020000040000fa
:100c9000202000005b31000032300000305d000099
:100ca0002020000000200000205b00003234000003
:100cb000303000005d2000002000000020200000f7
:100cc0005b34000038300000305d00002020000060
:100cd00000200000205b00003936000030300000aa
:100ce0005d20000020000000202000005b3100009b
:100cf00034340000303000005d200000002000008f
:100d0000205b00003139000032300000305d00000f
:100d100020000000202000005b3300003132000082
:100d2000353000005d20000000200000205b000046
:100d30003338000034300000305d00002000000037
:100d4000202000005b350000373600003030000006
:100d50005d20000000200000205b00003131000019
:100d600035320000303000005d000000202000001f
:100d70005b3200003330000034300000305d000092
:100d800000200000205b00003436000030380000f6
:100d9000303000005d000000202000005b350000c6
:100da0003030000030300000305d000000200000d6
:100db000205b000039320000313600003030000086
:100dc0005d000000384e000031000000384f000088
:100dd000310000003845000031000000202d0000e7
:100de0002042000061750000642000005261000094
:100df00074650000207200006571000075690000d4
:100e000072650000640d00000a000000323400002a
:100e100030300000003400003830000030000000a6
:100e2000393600003030000000310000343400005a
:100e30003030000000310000393200003030000056
:100e40000033000031320000353000000033000074
:100e50003834000030300000003500003736000024
:100e60003030000000310000313500003230000029
:100e700030000000202d0000204900006e760000a8
:100e8000616c000069640000204200006175000090
:100e90006420000052610000746500000d0a00002b
:100ea000002000002d200000426100007564000059
:100eb00020520000617400006520000043680000bb
:100ec000616e000067650000640d00000a0000000c
:100ed000202d000020490000324300002041000086
:100ee00064640000726500007373000020720000eb
:100ef000657100007569000072650000640d0000f6
:100f00000a000000202d00002049000032430000ac
:100f100020410000646400007265000073730000eb
:100f200020430000686100006e67000065640000f7
:100f30000d0a0000002000002d200000496e000076
:100f4000766100006c6900006420000049320000f6
:100f500043200000416400006472000065730000db
:100f600073200000766100006c750000650d0000c4
:100f70000a000000202d0000204b000065790000d1
:100f8000626f000061720000642000007661000062
:100f90006c7500006520000072650000717500002e
:100fa00069720000656400000d0a00000030000056
:100fb0000031000000320000002000002d20000061
:100fc000496e0000766100006c690000642000003a
:100fd0004b650000796200006f61000072640000e0
:100fe00020560000616c0000756500000d0a0000cd
:100ff000002000002d2000004b65000079620000f9
:101000006f6100007264000020430000686100000e
:101010006e670000656400000d0a000000200000fb
:101020002d2000004d6f0000646500002076000058
:10103000616c0000756500002072000065710000a1
:101040007569000072650000640d00000a00000070
:1010500033000000340000003500000036000000be
:1010600037000000202d0000204900006e760000af
:10107000616c000069640000204d00006f64000096
:1010800065200000566100006c750000650d0000d1
:101090000a000000202d0000204d00006f640000b9
:1010a0006520000043680000616e00006765000075
:1010b000640d00000a000000202d000020520000f6
:1010c000533200003332000020760000616c0000d3
:1010d00075650000207200006571000075690000f0
:1010e00072650000640d00000a0000004f46000019
:1010f000460000004f4e0000002000002d200000a0
:10110000496e0000766100006c69000064200000f8
:1011100052530000323300003220000056610000bc
:101120006c750000650d00000a000000202d000015
:1011300020520000533200003332000020430000f0
:10114000686100006e67000065640000202d0000eb
:10115000205000006f77000065720000206f0000d3
:1011600066660000206f00007220000072650000bb
:101170007365000074200000746f0000206100009f
:10118000637400006976000061740000650d000062
:101190000a000000202d00002045000073630000bd
:1011a0006170000065200000636f0000646500004e
:1011b0002072000065710000756900007265000012
:1011c000640d00000a00000032370000002000001b
:1011d0002d200000496e0000766100006c6900005f
:1011e000642000004573000063610000706500002a
:1011f00020560000616c0000756500000d0a0000bb
:10120000002000002d2000004573000063610000f5
:101210007065000020760000616c000075650000bc
:1012200020430000686100006e67000065640000f4
:101230000d0a0000000d00000a4800006f62000067
:1012400062790000747200006f6e00006963000034
:10125000732000005553000042200000486f00003a
:1012600073740000204b000065790000626f00007d
:10127000617200006420000000760000312e000042
:1012800034320000000d00000a0d00000a000000ca
:10129000202000004241000055440000203c000096
:1012a000766100006c750000653e000020200000a3
:1012b000202000002020000020200000202d000021
:1012c0002053000065740000205300006572000088
:1012d000696100006c200000506f00007274000013
:1012e000204200006175000064200000526100008f
:1012f000746500000d0a000000200000202000009e
:1013000020200000202000002020000020200000dd
:1013100020200000202000002020000020200000cd
:101320002020000020200000202000005b32000070
:1013300034300000307c00003438000030300000d1
:101340007c39000036300000307c00003134000071
:1013500034300000307c00003139000032300000b1
:10136000307c00003331000032350000307c00005a
:101370003338000034300000307c00003537000086
:1013800036300000307c0000313100003532000082
:10139000303000005d0d00000a0000002020000039
:1013a00049320000432000003c760000616c0000e0
:1013b000756500003e200000202000002020000075
:1013c0002020000020200000202d000020530000dd
:1013d00065740000204900003243000020410000f5
:1013e0006464000072650000737300000d0a000061
:1013f0000020000020200000280000002000000045
:1014000029200000202000002020000020200000d3
:1014100020200000202000002020000020200000cc
:10142000202000005b310000202d00002031000052
:10143000323700005d0d00000a000000202000008f
:101440004b450000594200004f410000524400004b
:10145000203c0000766100006c750000653e0000d5
:101460002020000020200000202d0000205300003c
:1014700065740000204b000065790000626f000079
:101480006172000064200000436f0000756e000070
:1014900074720000790d00000a0000002020000096
:1014a00020280000766100006c750000653d00009a
:1014b0000029000020200000202000002020000043
:1014c000202000002020000020200000203000000c
:1014d0002d550000534100002c200000312d00004c
:1014e000554b00002c200000322d00004465000008
:1014f0007574000073630000686500000d0a000049
:10150000002000002045000053430000203c000064
:10151000766100006c750000653e00002020000030
:1015200020200000202000002020000020200000bb
:101530002d2000005365000074200000457300005a
:1015400063610000706500002063000068610000b6
:101550007261000063740000657200000d0a0000f3
:101560000029000020200000202000002020000092
:10157000202000002020000020200000203000005b
:10158000206f000072200000323700000d0a0000ba
:1015900000200000204d00004f44000045200000c6
:1015a0003c760000616c0000756500003e20000084
:1015b000202000002020000020200000202000002b
:1015c0002d20000043750000737400006f6d000053
:1015d0006572000020530000706500006369000020
:1015e00066690000632000004d6f0000640d00007c
:1015f0000a00000029200000202000002020000018
:1016000020200000202000002020000020200000da
:10161000446f0000206e00006f7400002075000011
:1016200073650000207500006e6c0000657300009b
:1016300073200000696e0000737400007275000072
:101640006374000065640000207400006f200000d7
:10165000646f0000207300006f0d00000a0000009e
:1016600020200000525300003233000032200000de
:101670003c760000616c0000756500003e200000b3
:10168000202000002020000020200000202d00004d
:101690002053000065720000696100006c200000aa
:1016a000706f000072740000206300006f6e000015
:1016b00066690000677500007261000074690000cf
:1016c0006f6e0000200d00000a00000029200000bd
:1016d000202000002020000020200000202000000a
:1016e00020200000202000005b3000002f4f000071
:1016f000464600005d200000446500006661000071
:10170000756c000074200000545400004c2c000044
:10171000205b0000312f00004f4e00005d200000d4
:10172000525300003233000032200000496e0000a6
:10173000766500007274000065640000206c000093
:101740006f670000696300000d0a000000200000c0
:1017500020480000454c0000502000006f7200003f
:10176000203f00002020000020200000202000005a
:101770002020000020200000202000002d2000005c
:1017800064690000737000006c6100007920000043
:10179000686500006c7000000d0a00000055000034
:1017a0006e73000075700000706f000072740000ae
:1017b00065640000206300006f6d00006d61000033
:1017c0006e6400000d0a00000024000000420000ca
:1017d00041550000440000004b4500005942000004
:1017e0004f41000052440000004900003243000015
:1017f0000045000053430000004d00004f4400002e
:101800004500000052530000323300003200000057
:10181000484500004c500000003f0000003e000022
:10182000200000000d0a00003e200000000a000019
:101830000d0000002d0000003031000032330000a8
:1018400034350000363700003839000041420000ce
:0818500043440000454600007e
:020000040000fa
:10185800c10a20009140780082cfb30082c06000a6
:101868000104a0008000fd00ace0b7008000fd008e
:101878008600a90001242800311088000080fb00a0
:10188800501088009600a8000000060021072000dc
:1018980000262c00affb0700b1fb07000000060084
:1018a800881f780000447800c0fb070016c2bf00fc
:1018b8000008a300fdff3a008a40a900084078000c
:1018c800bcfb0700a6fb070019c2bf000000fb0015
:1018d8000080ea004f00de004f0478000000060098
:1018e800889fbe000144780082447800affb07005f
:1018f80016c2bf000008a300fdff3a008a40a900f5
:1019080000cab300abfb070095fb0700084078004e
:10191800a8fb070092fb070009407800a5fb070019
:101928008ffb0700adfb070016c2bf000028a3000d
:10193800fdff3a00a8cfb30000cab300d8ff0700e4
:10194800e14f5000020032000844e900faff3a0073
:10195800100020004f04be0000000600881f780019
:101968000144780091fb070016c2bf000008a300dd
:10197800fdff3a008a40a90000cab3008dfb0700aa
:1019880077fb0700084078008afb070074fb070014
:1019980092fb070072fb070084fb070016c2bf001a
:1019a8000008a300fdff3a008a40a90010cab3004e
:1019b80080fb07006afb07008afb070000447800e9
:1019c80067fb070085fb070016c2bf000028a300bd
:1019d800fdff3a000880fb004f0478000000060075
:1019e8003132800040852400808f50002000320072
:1019f800c482a8008100200000a62e000000e90093
:101a0800feff3a008100e900fbff3a00c482a9000a
:101a18008100200000a62e000000e900feff3a0029
:101a28008100e900fbff3a00c482a80001017800a8
:101a380001a62e000000eb000000e800810f500016
:101a4800fdff3a000201e800e80f5100f9ff3a00f3
:101a5800c482a9008107200000a62e000000e9002a
:101a6800feff3a008100e900fbff3a00e0ff370083
:101a7800000006000004e00004003a00aaf3b700e2
:101a8800c482a900cca2a90012003700e14f50007f
:101a980007003a00aa73ef00864ee20002003a00ff
:101aa800c482a8000b003700cca2a80009003700a8
:101ab800864ee20004003a0010c0b300aaf3b70053
:101ac800c482a8000300370020c0b300aaf3b700ff
:101ad800cca2a8000000060043cebf000080fb0097
:101ae80001002000ed0f5000e08f58008f003e00ed
:101af80000600100160037001e003700260037007e
:101b08002e003700360037004900370052003700f2
:101b18005b003700650037006f0037007900370039
:101b2800820037003800370000003700004b2000e3
:101b3800d07388007c2eef0000012000f07388002d
:101b4800802eef00822eef00842eef007700370002
:101b580000962000d07388007c2eef000001200042
:101b6800f0738800802eef00822eef00842eef00a5
:101b78006e003700002c2100d07388007c2eef0007
:101b880000012000f0738800802eef00822eef0005
:101b9800842eef006500370000582200d0738800bb
:101ba8007c2eef0000012000f0738800802eef00eb
:101bb800822eef00842eef005c00370000842300a3
:101bc800d07388007c2eef0000012000f07388009d
:101bd800802eef00822eef00842eef005300370096
:101be80000b02400d07388007c2eef004000200055
:101bf800f0738800802eef00100020001074880019
:101c0800842eef004900370020a12700d0738800f8
:101c18007c2eef0040002000f0738800802eef003b
:101c28001000200010748800842eef003f00370059
:101c380000602900d07388007c2eef00400020004f
:101c4800f0738800802eef001000200010748800c8
:101c5800842eef003500370000102e00d073880066
:101c68007c2eef0040002000f0738800802eef00eb
:101c78001000200010748800842eef002b0037001d
:101c880000202c00d073880010002000e07388002a
:101c980040002000f0738800802eef001000200024
:101ca80010748800842eef002000370000402800c0
:101cb800d073880030002000e073880040002000c6
:101cc800f0738800802eef00100020001074880048
:101cd800842eef001500370000802000d0738800a4
:101ce80070002000e073880040002000f073880036
:101cf800802eef001000200010748800842eef0062
:101d08000a00370000002100d0738800e00020009e
:101d1800e073880040002000f0738800802eef00f8
:101d28001000200010748800842eef0000000600c8
:101d38000080fb0001002000ed0f5000e08f5800ec
:101d480038003e0000600100100037001200370024
:101d58001400370016003700180037001d00370040
:101d68001f00370021003700230037002500370007
:101d78002a0037002600370013003700000037001c
:101d880080642800dc28070026003700306528001a
:101d9800d928070023003700e0652800d628070067
:101da8002000370090662800d32807001d00370060
:101db80040672800d02807001a003700f06728007d
:101dc800cd28070017003700a0682800ca28070098
:101dd8001400370050692800c72807001100370091
:101de800006a2800c42807000e003700b06a2800df
:101df800c12807000b003700606b2800be280700c9
:101e080008003700106c2800bb28070005003700c1
:101e1800c06c2800b828070002003700706d280041
:101e2800b528070000000600e14f50000700320007
:101e380003003900e24f500009003a00060037005d
:101e4800206e2800ac28070005003700606e2800c7
:101e5800a928070002003700a06e2800a62807005e
:101e68000000060060e8200011c0b30090cf100009
:101e780002003a006a02070001003700b0010700bb
:101e880000000600a2cab3008040eb0001407800c1
:101e980093fe07000300070061020700a80107007e
:101ea8000000060022c0b3000200780043eeb7002d
:101eb80044eeef0090c2b30045eeb700f00f2000eb
:101ec80030728800407288008001eb0053728800ed
:101ed80063728800a0c0b3004eeeb70011c0b30013
:101ee800010078004feeb7000300780050eeb7000d
:101ef8000100780051eeb7000300780052eeb700f9
:101f0800b0c1b30053eeb7000300780054eeb70039
:101f18000100780055eeb7000200780056eeb700d1
:101f280050c0b30057eeb7000100780058eeb70074
:101f38008001fd0059eeb7005aeeb7005beeb7001e
:101f48008001fd00cb42e20003003d000300780061
:101f58005ceeb7000200370010c0b3005ceeb700bb
:101f68008040eb008000fd005deeb7005eeeb7003c
:101f78005feeb70060eeb70061eeb7008000fd00cd
:101f88008000fd0062eeb70063eeb70064eeb700b4
:101f980065eeb70066eeb7008000fd0020c0b30014
:101fa80067eeb7008000fd0068eeb70069eeb70085
:101fb8008000fd0000cab3006aeeb70010c0b3008d
:101fc8006beeb7008000fd006ceeb7006deeb70059
:101fd8008000fd006eeeb7006feeb7008000fd00d8
:101fe80070eeb70071eeb7008000fd0072eeb7002a
:101ff80000c0eb0073eeb70074eeb70075eeb700e3
:1020080076eeb7008000fd0077eeb70078eeb700f7
:102018008000fd000000060030e42000d1c0b300bd
:1020280090cf10000200360020c0b30043eeb70086
:10203800f0e4200011c0b30090cf10000200360079
:10204800010078004feeb70000e5200011c0b30092
:1020580090cf1000020036000100780050eeb70063
:1020680010e5200021c0b30090cf10000200360018
:1020780010c0b30051eeb70020e5200021c0b30026
:1020880090cf100001003600526eef0030e52000be
:1020980080c0eb0090cf100002003a00b0c1b3003e
:1020a80053eeb70040e5200080c0eb0090cf100051
:1020b80001003a00546eef0050e5200011c0b30053
:1020c80090cf100001003600556eef0060e520004b
:1020d800d1c0b30090cf10000200360020c0b3007a
:1020e80056eeb70070e52000e1c1b30090cf1000b4
:1020f800020036000100780057eeb700574ee200a4
:1021080002003a0050c0b30057eeb70080e5200047
:1021180041c1b30090cf10000200360001007800e2
:1021280058eeb700584ee20002003a0040c1b30032
:1021380058eeb70090e5200011c0b30090cf100012
:1021480001003600596eef00a0e5200011c0b30071
:1021580090cf1000010036005a6eef00b0e5200065
:1021680011c0b30090cf1000010036005b6eef0085
:1021780040e6200021c0b30090cf100001003600d7
:10218800646eef00c0e5200011c0b30090cf1000ce
:10219800010036005c6eef00b0e6200011c0b3000d
:1021a80090cf1000010036006b6eef00c0e62000f3
:1021b80001c1b30090cf1000010036006c6eef0033
:1021c800d0e6200011c0b30090cf10000100360007
:1021d8006d6eef00e0e6200011c0b30090cf100054
:1021e80002003600010078006eeeb700f0e620002d
:1021f80021c0b30090cf10000200360010c0b30019
:102208006feeb7006f4ee20002003a0010c0b30054
:102218006feeb70000e7200011c0b30090cf1000a8
:1022280001003600706eef0010e7200021c0b300f7
:1022380090cf100001003600716eef0020e72000fb
:1022480011c0b30090cf10000200360001007800e2
:1022580072eeb70070e7200011c0b30090cf1000f5
:1022680001003600776eef0080e7200011c0b30050
:1022780090cf100001003600786eef0000000600d5
:10228800881f78000044eb000800780086eeb7004d
:1022980000cab30082fd0700e14f500010003a0069
:1022a80086eeb7008840780008407800abfd07004c
:1022b800a1cab300814f500002003a006b02070028
:1022c80008003700a2cab3008040eb000140780044
:1022d80083fd0700f3fe07005101070001003700e6
:1022e800020007004f0478000000060000c0250027
:1022f80001002000407c8800517c88000002eb002f
:102308000304200082e8200095f80700417480004b
:102318000100780042eeb700a0cab300814f500018
:1023280084003a008acebf0043eeb7008ccebf00cf
:1023380044eeb7008ecebf0045eeb7008174800032
:10234800c808dd00907480000080fb008080400099
:1023580031728800a1748000c808dd00b074800064
:102368000080fb008080400041728800e17480009a
:10237800c808dd00f07480000080fb008080400009
:102388005172880001758000c808dd001075800052
:102398000080fb0080804000617288009acebf00f8
:1023a8004eeeb700a4cebf004feeb700a6cebf00da
:1023b80050eeb700a8cebf0051eeb700aacebf00be
:1023c80052eeb700accebf0053eeb700aecebf00a2
:1023d80054eeb700b0cebf0055eeb700b2cebf0086
:1023e80056eeb700b4cebf0057eeb700b6cebf006a
:1023f80058eeb700b8cebf0059eeb700bacebf004e
:102408005aeeb700bccebf005beeb700becebf0031
:102418005deeb70003768000030078005eeeb7003b
:1024280012768000020078005feeb7002176800007
:102438000100780060eeb700347680000400780070
:1024480061eeb700c8cebf0062eeb70003007800a7
:1024580063eeb7000200780064eeb7000100780070
:1024680065eeb7000400780066eeb700407c800097
:10247800517c80000008b0000180b000407c8800da
:10248800517c88000002eb000304200082f0200049
:1024980033f807000acfbf005ceeb70008cfbf00d3
:1024a80067eeb7000ccfbf0068eeb7000ecfbf00d5
:1024b80069eeb70010cfbf006aeeb70012cfbf00b9
:1024c8006beeb70014cfbf006ceeb70016cfbf009d
:1024d8006deeb70018cfbf006eeeb7001acfbf0081
:1024e8006feeb7001ccfbf0070eeb7001ecfbf0065
:1024f80071eeb70020cfbf0072eeb70022cfbf0049
:1025080073eeb70024cfbf0074eeb70026cfbf002c
:1025180075eeb70028cfbf0076eeb7002acfbf0010
:1025280077eeb7002ccfbf0078eeb700bafe0700f1
:10253800020037005bfe07000100070000000600ec
:10254800881f78000004eb0081e82000a0f020003c
:1025580002042000881878000804e80008187800a9
:10256800820f5400fbff3a00a00a20004074880044
:1025780043cebf000080fb005074880044cebf00eb
:102588000080fb006074880045cebf000080fb001f
:102598007074880030728000f20f2000c800de00de
:1025a8008174880002006000907488004172800085
:1025b8004808de0002006000a07488008280600085
:1025c800b1748800517280004808de000200600083
:1025d800e074880082806000f17488006172800075
:1025e8004808de00020060000075880082806000f4
:1025f800117588004ecebf000080fb00d0748800a3
:102608004fcebf000080fb002075880050cebf0071
:102618000080fb003075880051cebf000080fb00b1
:102628004075880052cebf000080fb0050758800be
:1026380053cebf000080fb006075880054cebf00f9
:102648000080fb007075880055cebf000080fb003d
:102658008075880056cebf000080fb00907588000a
:1026680057cebf000080fb00a075880058cebf0081
:102678000080fb00b075880059cebf000080fb00c9
:10268800c07588005acebf000080fb00d075880056
:102698005bcebf000080fb00e07588005dcebf0008
:1026a8000080fb00f075880062cebf000080fb0050
:1026b8004076880063cebf000080fb00007688006b
:1026c80064cebf000080fb001076880065cebf0096
:1026d8000080fb002076880066cebf000080fb00eb
:1026e8003076880067cebf000080fb004078880005
:1026f8005ccebf000080fb005078880068cebf0029
:102708000080fb006078880069cebf000080fb0075
:10271800707888006acebf000080fb00807888004f
:102728006bcebf000080fb00907888006ccebf00a5
:102738000080fb00a07888006dcebf000080fb0001
:10274800b07888006ecebf000080fb00c07888009b
:102758006fcebf000080fb00d078880070cebf002d
:102768000080fb00e078880071cebf000080fb008d
:10277800f078880072cebf000080fb0000798800e6
:1027880073cebf000080fb001079880074cebf00b4
:102798000080fb002079880075cebf000080fb0018
:1027a8003079880076cebf000080fb004079880031
:1027b80077cebf000080fb005079880078cebf003c
:1027c8000080fb006079880000c02500010020001f
:1027d800407c8800517c8800220424007bf7070095
:1027e8008801780082e82000407c8000517c8000cd
:1027f80084f70700407c8000517c80000008b0000e
:102808000180b000407c8800517c880088017800f5
:1028180082f020007bf707004f04780000000600d4
:10282800a2cab3008040eb00014078002cfc0700ee
:1028380032e420001241780011c0b3000040eb00e0
:1028480027fc070042e420001241780021c0b300b1
:102858000040eb0022fc070052e4200012417800ff
:1028680031c0b3000040eb001dfc0700327280004d
:102878004811de0041c0b3000040eb0018fc07001f
:1028880062e420001241780051c0b3000040eb0020
:1028980013fc0700427280004811de0061c0b300db
:1028a8000040eb000efc070082e420001241780093
:1028b80071c0b3000040eb0009fc070052728000b1
:1028c8004811de00a1c0b3000040eb0004fc070083
:1028d800a2e4200012417800b1c0b3000040eb0030
:1028e800fffb0700627280004811de00c1c0b30020
:1028f8000040eb00fafb0700c2e420001241780018
:10290800d1c0b3000040eb00f5fb0700e2e4200073
:102918001241780091c0b3000040eb00f0fb0700c3
:10292800f2e4200012417800e1c0b3000040eb005f
:10293800ebfb070002e5200012417800f1c0b3006c
:102948000040eb00e6fb070012e52000124178008a
:1029580001c1b3000040eb00e1fb070022e52000c5
:102968001241780011c1b3000040eb00dcfb070006
:1029780032e520001241780021c1b3000040eb008d
:10298800d7fb070042e520001241780031c1b300af
:102998000040eb00d2fb070052e52000124178000e
:1029a80041c1b3000040eb00cdfb070062e5200009
:1029b8001241780051c1b3000040eb00c8fb07008a
:1029c80072e520001241780061c1b3000040eb00bd
:1029d800c3fb070082e520001241780071c1b300f3
:1029e8000040eb00befb070092e520001241780092
:1029f80081c1b3000040eb00b9fb0700a2e520004d
:102a08001241780091c1b3000040eb00b4fb07000d
:102a1800b2e5200012417800a1c1b3000040eb00ec
:102a2800affb0700c2e520001241780011c2b300d5
:102a38000040eb00aafb0700d2e520001241780015
:102a4800b1c1b3000040eb00a5fb0700e2e52000a0
:102a580012417800c1c1b3000040eb00a0fb0700a1
:102a6800f2e5200012417800d1c1b3000040eb002c
:102a78009bfb070002e6200012417800e1c1b30089
:102a88000040eb0096fb070012e620001241780098
:102a9800f1c1b3000040eb0091fb070022e62000e3
:102aa8001241780001c2b3000040eb008cfb070024
:102ab80032e6200012417800c1c1b3000040eb00ab
:102ac80087fb070042e6200012417800d1c1b3001d
:102ad8000040eb0082fb070052e62000124178001c
:102ae800e1c1b3000040eb007dfb070062e6200077
:102af80012417800f1c1b3000040eb0078fb0700f9
:102b080072e620001241780001c2b3000040eb00d9
:102b180073fb070082e620001241780021c2b3004f
:102b28000040eb006efb070092e62000124178009f
:102b380031c2b3000040eb0069fb0700a2e62000a9
:102b48001241780041c2b3000040eb0064fb07006b
:102b5800b2e620001241780051c2b3000040eb00f9
:102b68005ffb0700c2e620001241780061c2b30093
:102b78000040eb005afb0700d2e620001241780023
:102b880071c2b3000040eb0055fb0700e2e62000ed
:102b98001241780081c2b3000040eb0050fb0700ef
:102ba800f2e620001241780091c2b3000040eb0029
:102bb8004bfb070002e7200012417800a1c2b300d6
:102bc8000040eb0046fb070012e7200012417800a6
:102bd800b1c2b3000040eb0041fb070022e7200030
:102be80012417800c1c2b3000040eb003cfb070073
:102bf80032e7200012417800d1c2b3000040eb0058
:102c080037fb070042e7200012417800e1c2b30019
:102c18000040eb0032fb070052e720001241780029
:102c2800f1c2b3000040eb002dfb070062e7200073
:102c38001241780001c3b3000040eb0028fb0700f5
:102c480072e720001241780011c3b3000040eb0086
:102c580023fb070082e720001241780021c3b3005c
:102c68000040eb001efb070000000600881f7800ec
:102c780011c0b3000040eb0038fb070043eeb7007b
:102c880021c0b3000040eb0034fb070044eeb7005e
:102c980031c0b3000040eb0030fb070045eeb70041
:102ca80041c0b3000040eb002cfb07004804dd00e6
:102cb8003872880051c0b3000040eb0027fb0700c2
:102cc8000080fb00000044003072880061c0b3003f
:102cd8000040eb0021fb07004804dd004872880033
:102ce80071c0b3000040eb001cfb07000080fb0034
:102cf8000000440040728800a1c0b3000040eb000f
:102d080016fb07004804dd0058728800b1c0b30004
:102d18000040eb0011fb07000080fb0000004400ae
:102d280050728800c1c0b3000040eb000bfb0700e5
:102d38004804dd0068728800d1c0b3000040eb0091
:102d480006fb07000080fb0000004400607288005a
:102d580091c0b3000040eb0000fb07004eeeb70047
:102d6800e1c0b3000040eb00fcfa07004feeb700eb
:102d7800f1c0b3000040eb00f8fa070050eeb700ce
:102d880001c1b3000040eb00f4fa070051eeb700b0
:102d980011c1b3000040eb00f0fa070052eeb70093
:102da80021c1b3000040eb00ecfa070053eeb70076
:102db80031c1b3000040eb00e8fa070054eeb70059
:102dc80041c1b3000040eb00e4fa070055eeb7003c
:102dd80051c1b3000040eb00e0fa070056eeb7001f
:102de80061c1b3000040eb00dcfa070057eeb70002
:102df80071c1b3000040eb00d8fa070058eeb700e5
:102e080081c1b3000040eb00d4fa070059eeb700c7
:102e180091c1b3000040eb00d0fa07005aeeb700aa
:102e2800a1c1b3000040eb00ccfa07005beeb7008d
:102e380011c2b3000040eb00c8fa07005ceeb7000f
:102e4800b1c1b3000040eb00c4fa07005deeb70063
:102e5800c1c1b3000040eb00c0fa07005eeeb70046
:102e6800d1c1b3000040eb00bcfa07005feeb70029
:102e7800e1c1b3000040eb00b8fa070060eeb7000c
:102e8800f1c1b3000040eb00b4fa070061eeb700ef
:102e980001c2b3000040eb00b0fa070062eeb700d1
:102ea800c1c1b3000040eb00acfa070063eeb70005
:102eb800d1c1b3000040eb00a8fa070064eeb700e8
:102ec800e1c1b3000040eb00a4fa070065eeb700cb
:102ed800f1c1b3000040eb00a0fa070066eeb700ae
:102ee80001c2b3000040eb009cfa070067eeb70090
:102ef80021c2b3000040eb0098fa070068eeb70063
:102f080031c2b3000040eb0094fa070069eeb70045
:102f180041c2b3000040eb0090fa07006aeeb70028
:102f280051c2b3000040eb008cfa07006beeb7000b
:102f380061c2b3000040eb0088fa07006ceeb700ee
:102f480071c2b3000040eb0084fa07006deeb700d1
:102f580081c2b3000040eb0080fa07006eeeb700b4
:102f680091c2b3000040eb007cfa07006feeb70097
:102f7800a1c2b3000040eb0078fa070070eeb7007a
:102f8800b1c2b3000040eb0074fa070071eeb7005d
:102f9800c1c2b3000040eb0070fa070072eeb70040
:102fa800d1c2b3000040eb006cfa070073eeb70023
:102fb800e1c2b3000040eb0068fa070074eeb70006
:102fc800f1c2b3000040eb0064fa070075eeb700e9
:102fd80001c3b3000040eb0060fa070076eeb700cb
:102fe80011c3b3000040eb005cfa070077eeb700ae
:102ff80021c3b3000040eb0058fa070078eeb70091
:1030080005fc07004f04780000000600a006200019
:10301800808f50001800320007003e006500500005
:10302800808f50001400320064004000808f5000f0
:1030380013003a000a003700c0062000808f5000b5
:103048000f00390064004000808f50000a003600ed
:1030580090252000808f500009003a0004003700b6
:1030680012409000e64f400003003600040037008d
:10307800ae080700030037001000200001003700e9
:103088000000eb00000006003200fa00889fbe0036
:1030980010c0b30087eeb70020302300103a880034
:1030a8004427ef00c082a900c8a2a900c8e2a9006d
:1030b80068c0a80068e0a800c842a800c862a800c4
:1030c8002ca3ef0044a7a800802520000000e900f9
:1030d800e10f4000fdff3a0041fa0700ebf9070055
:1030e80067fc070040e5200051c0b30090cf1000f6
:1030f80003003a00c902a900c922a900020037004a
:1031080045cebf00d2f9070073fa07001474800097
:1031180025748000f273800003748000d0738000ef
:10312800e1738000c723070080de2f000000e9005c
:10313800feff3a0070e7200011c0b30090cf1000e6
:1031480002003a003082a80033c2a800a6c6bf0019
:1031580001ceb300014060005040b300a6e6b700be
:10316800c6c6bf00014060005040b300c6e6b700c5
:10317800c022a9006000b800700a070010c0b300a0
:10318800d6f0b7000040eb00d9f0b700da32ef0014
:10319800d8f0b700cce2a90040e5200051c0b30048
:1031a80090cf100003003a00cd22a900cd02a9005b
:1031b800cce2a900d16fef00d230ef00df030700a7
:1031c800980b07006d180700dd0207000004e000f7
:1031d800cf023a003b0237000241e80002007800c3
:1031e800d4f0b7008280fb00a00d2100e1407800f8
:1031f80000c2b30080cf5000f7ff3200d5d0bf0027
:10320800e34f5000e200320004003e00e14f50005e
:103218000a003200e3013e0029023700e54f500062
:10322800b6013200b9003900e64f500008013200fb
:10323800e74f500020023a006c013700a0fc2f0035
:103248000f004000860307002fc897000004e00025
:1032580003003a00e06e2800a72307001802370091
:103268004200200061702800a0fc2f000f004000e1
:1032780064f50700000478000000e00008003a0048
:10328800a0fc2f000f0040006ff50700e40f50006e
:1032980003003a000800780043eeb7007a003700d0
:1032a80042002000b1702800a0fc2f000f00400051
:1032b80054f507000000e00008003a00a0fc2f00c9
:1032c8000f00400060f50700e40f500003003a00cb
:1032d80010c0b30043eeb7006b0037004200200077
:1032e80001712800a0fc2f000f00400045f50700e1
:1032f8000000e00008003a00a0fc2f000f0040008a
:1033080051f50700e40f500003003a0020c0b30055
:1033180043eeb7005c0037005200200051712800ce
:10332800a0fc2f000f00400036f507000000e00069
:1033380008003a00a0fc2f000f00400042f50700eb
:10334800e50f500003003a0030c0b30043eeb70069
:103358004d00370052002000b1712800a0fc2f005a
:103368000f00400027f507000000e00008003a00c1
:10337800a0fc2f000f00400033f50700e50f5000b8
:1033880003003a0040c0b30043eeb7003e003700e8
:103398005200200011722800a0fc2f000f004000ee
:1033a80018f507000000e00008003a00a0fc2f0014
:1033b8000f00400024f50700e50f500003003a0015
:1033c800c0c0b30043eeb7002f0037005200200002
:1033d80071722800a0fc2f000f00400009f50700bb
:1033e8000000e00007003a00a0fc2f000f0040009a
:1033f80015f50700e50f500002003a0043eeb7004c
:103408002100370052002000d1722800a0fc2f00b4
:103418000f004000fbf407000000e00008003a003d
:10342800a0fc2f000f00400007f50700e50f500033
:1034380003003a0060c0b30043eeb7001200370043
:103448006200200031732800a0fc2f000f0040000c
:10345800ecf407000000e00008003a00a0fc2f0090
:103468000f004000f8f40700e60f500003003a0090
:1034780070c0b30043eeb70003003700a073280004
:103488001d2307008e01370076fa07001075280003
:103498001923070090f90700c6c6bf0001ceb30084
:1034a80001406000c6e6b7003342a90031e2a90036
:1034b8001474800025748000f27380000374800007
:1034c800d0738000e1738000de22070080de2f00c9
:1034d8000000e900feff3a0080de2f000000e9004e
:1034e800feff3a00a0118800a0118800a0118800f2
:1034f800a0118800c6c6bf0001ceb300014060001d
:103508005040b300c6e6b7006d013700a0fc2f009d
:103518000f004000d2020700afc897000104e00086
:1035280003003a0080762800f32207006401370080
:10353800a0fc2f000f004000c9f407000000e000c5
:1035480010003400a0fc2f000f004000c4f4070056
:10355800f1072000810f50000a003c00a0fc2f005a
:103568000f004000bef4070045eeb7003dfa070023
:1035780045cebf00b6f8070020782800de220700f5
:103588004f013700b0792800db2207004c013700d3
:10359800a0fc2f000f004000b10207002fc89700c1
:1035a8000004e00003003a00a07b2800d2220700b4
:1035b800430137002fcc9700707d2800904f5400ae
:1035c80007003a00a0fc2f000f0040009ef40700ff
:1035d800e10f500002003a00516eef00180037006a
:1035e800907d2800904f540007003a00a0fc2f005f
:1035f8000f00400094f40700e10f500002003a0069
:1036080051eeb7000e003700b07d2800904f5400ef
:1036180008003a00a0fc2f000f0040008af40700c1
:10362800e10f500003003a0020c0b30051eeb7008c
:1036380003003700d07d2800af22070020013700a3
:1036480008fa0700907f2800ab2207001c0137000a
:10365800a0fc2f000f00400081020700afc89700b0
:103668000104e00003003a00f0802800a2220700cd
:10367800130137002fcc9700707d2800904f54001d
:1036880007003a00a0fc2f000f0040006ef407006e
:10369800e10f500002003a00546eef004f0037006f
:1036a800907d2800904f540007003a00a0fc2f009e
:1036b8000f00400064f40700e10f500002003a00d8
:1036c80054eeb70045003700b07d2800904f5400f5
:1036d80008003a00a0fc2f000f0040005af4070031
:1036e800e10f500003003a0020c0b30054eeb700c9
:1036f8003a00370080822800904f540008003a00b2
:10370800a0fc2f000f0040004ff40700e10f50000d
:1037180003003a0030c0b30054eeb7002f00370062
:10372800a0822800904f540008003a00a0fc2f0007
:103738000f00400044f40700e10f500003003a0076
:1037480040c0b30054eeb70024003700c082280000
:10375800904f540008003a00a0fc2f000f004000d2
:1037680039f40700e10f500003003a0050c0b300dd
:1037780054eeb70019003700e0822800904f54003b
:1037880008003a00a0fc2f000f0040002ef40700ac
:10379800e10f500003003a0060c0b30054eeb700d8
:1037a8000e00370000832800904f540008003a00ac
:1037b800a0fc2f000f00400023f40700e10f500089
:1037c80003003a0070c0b30054eeb700030037009e
:1037d8002083280048220700b9003700a1f9070014
:1037e800a084280044220700b5003700a0fc2f0061
:1037f8000f0040001a0207002fc897000004e000dd
:1038080003003a00c08528003b220700ac003700bf
:10381800afcc9700707d280090cf540007003a0085
:10382800a0fc2f000f00400007f40700e10f500034
:1038380002003a00776eef002c00370032002000bb
:1038480061872800a0fc2f000f004000edf307005f
:10385800000478000000e00008003a00a0fc2f00f7
:103868000f004000f8f30700e30f500003003a0090
:103878000800780077eeb7001c003700907d28001c
:1038880090cf540007003a00a0fc2f000f00400022
:10389800edf30700e10f500002003a0077eeb700a1
:1038a8001200370022002000a1872800a0fc2f006a
:1038b8000f004000d3f307000000e00008003a00c2
:1038c800a0fc2f000f004000dff30700e20f5000bc
:1038d80003003a0010c0b30077eeb70003003700ca
:1038e800d087280004220700750037005df907001b
:1038f800608928000022070071003700a0fc2f0013
:103908000f004000d6010700afc897000104e0008f
:1039180003003a00a08c2800f72107006800370050
:10392800707d2800afc8970090cf500007003a007c
:10393800a0fc2f000f004000c3f30700e10f500068
:1039480002003a00536eef001200370022002000f8
:10395800418e2800a0fc2f000f004000a9f30700ab
:103968000000e00008003a00a0fc2f000f00400013
:10397800b5f30700e20f500003003a00b0c1b300ee
:1039880053eeb70003003700708e2800da210700d5
:103998004b00370033f9070010902800d6210700a4
:1039a80047003700b0912800d3210700d0932800a2
:1039b800d121070030942800cf21070080942800e7
:1039c800cd210700d0972800cb210700e09c2800d4
:1039d800c9210700909f2800c721070045cebf00d6
:1039e8000080fb00dc21070030c6b300454ee30031
:1039f80002003e00e09f2800bf21070050e420009d
:103a080091c0b30090cf100002003e00e09f280054
:103a1800b921070000a02800b7210700e0a128006d
:103a2800b5210700e0a42800b321070051cebf004c
:103a38000080fb00c821070090a52800ae210700e0
:103a480010a82800ac210700e0a42800aa2107003c
:103a580053cebf000080fb00bf21070010ab280039
:103a6800a521070090ac2800a3210700e0a42800a6
:103a7800a121070054cebf000080fb00b62107003b
:103a8800a0af28009c21070000b328009a21070056
:103a9800e0a428009821070077cebf000080fb0033
:103aa800ad21070060b628009321070070ba2800ee
:103ab8009121070002003700f0bc28008e21070082
:103ac8009e0107006b030700709d8000e30f500004
:103ad8002c00320004003e00e10f500018003200b4
:103ae80022003e0006003700e50f50006500320056
:103af80033003900e60f5000b1fd3a00700037007e
:103b08000040eb00dbf70700460907001b1607001b
:103b1800b413e20002003a0010002000a09d8800c3
:103b280010c0b300a71507000000e000a4fd320094
:103b380010002000709d8800b233ef00a0fd370010
:103b480010c0b300cbf7070020002000709d88004c
:103b5800b213e20003003a0010002000909d880094
:103b6800b433ef009206070095fd370010c0b3008c
:103b7800941507000000e00091fd3a00709d880050
:103b88008ffd3700e2f9200012417800157e800091
:103b9800047e8000f37d800011c0b30001407800ee
:103ba8005a1707000004e00002003a004000200015
:103bb800709d88001b090700f015070080fd37007d
:103bc80092fc200071fc200010c0b300bc17070055
:103bd8000000e0007afd3200c74fe20005003a001d
:103be800c9cfbf000080fb00017e8000810f50001c
:103bf8000b003200c86fec0070fc200091c0b300cd
:103c080090cf10000300360070002000709d8800df
:103c18006bfd370020002000709d880068fd37008c
:103c2800c86fef0010002000607e88002000200090
:103c3800709d8800909d8000e10f50000e003a00b2
:103c48003c0037008040eb000000eb00137e800052
:103c58000002eb00027e800060c079000004e000f2
:103c680001003200949d88008140e8000180fb003b
:103c7800800f5100f8ff3e00470107003b01070095
:103c88004ffd370042f920001241780065fc200002
:103c9800647c8000737c80008040eb0010c0b3001f
:103ca8001a1707000004e00002003a006000200034
:103cb800709d8800db080700b015070040fd37003d
:103cc80092fc200071fc200010c0b3007c17070094
:103cd8000000e0003afd3200c74fe2000800320061
:103ce800c86fec0070fc200091c0b30090cf1000aa
:103cf80033fd360070002000709d880030fd3700cd
:103d0800c86fef0020002000709d88002cfd370050
:103d1800420d2100124178008280fb00a00d210095
:103d2800e140780000c2b30080cf500033fd3a0074
:103d380029fd3700c00fe200c2ff3a00ceff37006e
:103d48003200fa000000eb00d950e200c200320055
:103d58000040eb00d9f0b700da32ef00d4f0b7003a
:103d6800e0fc2f000f004000bd000700420d2100bd
:103d7800124178008280fb00a00d2100e14078000c
:103d880000c2b30080cf500009003a00a30d210003
:103d9800804078000241e8000280fb0060c07900a2
:103da800814f5000fbff320002007800d4f0b700ca
:103db8006fc897000004e00003003a00d5f0b70090
:103dc80010002000a4003700ed4f500003003a0017
:103dd800d570ef00100020009f003700ea4f500018
:103de80003003a00d570ef00100020009a00370059
:103df80050be2800efc8970090cf500019003a0035
:103e0800e0fc2f000f0040008ff20700e10f500088
:103e18001400360010c0b300d6f0b700e0fc2f0045
:103e28000f00400088f207000001e900e3fc2f00c2
:103e38008f8141008300e80003007800acf207009e
:103e4800e0fc2f000f0040007ff207000000e900af
:103e58008040eb00e2fc2f000001410001f17f00ef
:103e680001003700d670ef004200200071be280024
:103e7800e0fc2f000f00400062f207000000e000a5
:103e880009003a00e0fc2f000f0040006ef2070026
:103e9800e40f500004003a0010c0b300d5f0b7009a
:103ea800100020006c00370082002000c1be2800ee
:103eb800e0fc2f000f00400052f207000000e00075
:103ec80009003a00e0fc2f000f0040005ef20700f6
:103ed800e80f500004003a0030c0b300d5f0b70036
:103ee800100020005c0037003200200051bf28007d
:103ef800e0fc2f000f00400042f207000000e00045
:103f080009003a00e0fc2f000f0040004ef20700c5
:103f1800e30f500004003a0040c0b300d5f0b700ea
:103f2800100020004c0037003200200091bf28000c
:103f3800e0fc2f000f00400032f207000000e00014
:103f480009003a00e0fc2f000f0040003ef2070095
:103f5800e30f500004003a0050c0b300d5f0b7009a
:103f6800100020003c00370042002000d1bf28008c
:103f7800e0fc2f000f00400022f207000000e000e4
:103f880009003a00e0fc2f000f0040002ef2070065
:103f9800e40f500004003a0060c0b300d5f0b70049
:103fa800100020002c0037005200200021c02800fb
:103fb800e0fc2f000f00400012f207000000e000b4
:103fc80009003a00e0fc2f000f0040001ef2070035
:103fd800e50f500004003a0070c0b300d5f0b700f8
:103fe800100020001c0037004200200081c028007b
:103ff800e0fc2f000f00400002f207000000e00084
:1040080005003a00e0fc2f000f0040000ef2070008
:10401800e40f500009003200d0c02800efc8970014
:1040280090cf500009003a00e0fc2f000f0040003c
:1040380005f20700e10f500004003a0020c0b30069
:10404800d5f0b700100020000300370080c0b3008f
:10405800d5f0b700100020000080fa00000006002c
:1040680000027800420d2100124178008280fb0096
:10407800a00d2100e140780000c2b30080cf5000bd
:1040880009003a00a30d2100804078000241e800b1
:104098000280fb0060c07900814f5000fbff3200b6
:1040a80002007800d4f0b700430d21009341780056
:1040b8008380fb00a00d2100614178000204e0002c
:1040c80018003a00150037000340e800d4f0b700a4
:1040d800f0c9b30000404100f94f500002003e0013
:1040e80000ceb30000414100025a7800430d210080
:1040f800934178008380fb00a00d21006141780086
:104108000204e0000500320000c2b300804f5100f5
:1041180002003200fe4f5100ebff3c00004aeb006a
:104128000000060000c2b300804f5100fbff3200c0
:10413800fe4f5100e4ff3c00f8ff370091c0b30088
:10414800f0c02800300607000040eb00d5f0b700ab
:10415800d4f0b700d6f0b7000000060091c0b30055
:1041680020c128002806070000000600607e8000a5
:10417800e10f500007003a008000eb00617e8800e4
:10418800b013e2000300320050002000709d880048
:10419800819d880000000600889fbe008a9fbe009f
:1041a8008c9fbe00017e8000107e800063f9200095
:1041b800a2fa200027170700017e8000107e8000e9
:1041c80003fa200022fb20002217070040e5200008
:1041d80061c0b30090cf100011003a0070c12800f0
:1041e800c51f0700c00fe2000d0032000044eb00bd
:1041f8008000eb00107e8000614078000080fb00aa
:1042080002200700a0c12800bb1f07000844e800df
:104218008880fb00007e8000810f5000f5ff3e0083
:10422800107e800090407800e8cf500003003200f4
:1042380000c8b30080cf50001f003a0054cebf0022
:10424800e24f50000d003a003901070000447800a1
:1042580050c6b30026010700084078002401070073
:10426800150037000a007800b8f3b700f8003700e7
:104278000140e800b8f3b700f5003700e54f5000fb
:1042880001003200cce2a90000012000010020005a
:1042980072f0070040e5200051c0b30090cf100035
:1042a80001003200cce2a80053cebf001001070085
:1042b800b0c5b3000e0107008046eb0020fb2000cc
:1042c80081fb20001004e000010032001dc0b30093
:1042d8000000e800808f5000faff3a000045eb002c
:1042e8004ce52000b24fe20001003a005ac0b3008a
:1042f8008a84fb0028fb200069407c000004e00061
:104308009800320045010700800078000000e000b6
:10431800cc003a0069417c0090c3b300804f510043
:104328000e003a00b653e20001003a0011c0b30093
:1043380001007800b6f3b70010002000809d8800c7
:10434800e1c0600081c04000c6cfbf000014a100da
:1043580001407000c6efb700ba00370030c5b3009f
:10436800804f51000e003a00b7d3bf000080fb0019
:104378000000e9004f00de00b7f3b700110020008d
:10438800819d880061fc2000914078000104a10013
:104398008140700001007800c6efb700a90037001f
:1043a80050c0b3009c4f100001003200cce2a900bd
:1043b800000120000100200028f0070041e520004e
:1043c80091407800e5cf500001003200cce2a8000f
:1043d8002bfb200069c07d00b9f3b700e2cf500085
:1043e80007003a00d20007000044780069c07d0049
:1043f800bf00070008407800bd00070091003700a3
:10440800a9030700507e880020fb2000694078003f
:104418003301070000447800c50007008044780095
:1044280011c0b3009ccf100006003a000804e00059
:1044380002003200fb4f540002003a00c0c7b3002c
:10444800ab00070040c0b3009c4f100006003a00c4
:104458000804e00002003200fb4f540002003a005a
:1044680053cebf00a200070051c0b3009ccf10007c
:104478000d003a000804e00002003200fb4f54002f
:1044880002003a0053cebf00990007000928a30094
:1044980009003a00ca0fe2000700320053cebf00fd
:1044a8009300070004003700ca0fe2000200320040
:1044b80053cebf008e00070054cebf00e34f50001c
:1044c80008003a00fb4f540003003a000040eb009c
:1044d800870007005b003700084078008400070069
:1044e80013003700e54f50000a003a000928a300de
:1044f8000f003a0030cab300804f540002003a005f
:104508007f4040007a0007000840780078000700e4
:104518000700370030cab300804f540002003a0049
:104528007f404000720007000840780070000700d4
:10453800ed4f540043003a0050c0b3009c4f1000a8
:1045480005003a000928a3003e003a00a0c0b300c5
:10455800670007003b003700a0c0b30064000700f5
:1045680038003700b9d3bf00b70007000000e000eb
:104578000e003a00b9d3bf00a80007000000e00011
:104588000a00320021c0b3009ccf100007003a0097
:10459800670007000044780020fb2000694078008d
:1045a8005300070008407800510007000a04e000a3
:1045b8002cff32008900e90020fb200061407800d0
:1045c800e1fc2000914078000104e1001a003a0063
:1045d800813b210091407800e2cf500024ff360053
:1045e800bf0007000044780050c0b3009c4f100083
:1045f8000a003a004e0007000028a30014003a0001
:10460800084078003a000700ed4f540010003a00c7
:10461800a0c0b300360007000d003700084078003e
:1046280033000700ed4f540009003a00a0c0b30062
:104638002f00070006003700b873ef00ceefb70071
:10464800030037000a45e800e54f550025ff36000e
:104658000d04e00006003a0040e5200051c0b30018
:1046680090cf100006003200cce2a9001a003700f3
:1046780040e5200051c0b30090cf100016003a006a
:104688002b000700804178000081fb001102200008
:1046980001006100810f500002003a00cd22a800fd
:1046a80001003700cd22a90011042000010061009b
:1046b800810f500002003a00cd02a8000100370027
:1046c800cd02a9000328a30002003200cce2a80012
:1046d80001003700cce2a900480007006b00070082
:1046e8004f06be004f05be004f04be000000060086
:1046f800881f7800004478008c1e0700918680008f
:1047080012fd2000887079008100e80091868800f9
:104718000040eb0080707900e00f2000808f50008f
:1047280001003600908688004f04780000000600db
:1047380011c2b300b0fa200012c0b300904f1100ac
:10474800010032008040eb00a0fa200012c0b30044
:10475800904f110001003a002142b300c0fa200036
:1047680012c0b300904f110001003a004142b3005b
:10477800f0fa200012c0b300904f110001003a0077
:104788001144b300e0fa200012c0b300904f1100aa
:1047980001003a002144b30000fb200012c0b3001e
:1047a800904f110001003a004144b300603b2100e2
:1047b80012c0b300904f110001003a000134a0006c
:1047c800703b210012c0b300904f110001003a0065
:1047d8000144a000d0fa200012c0b300904f11008d
:1047e8000300320010fb2000904f110001003a0036
:1047f8000174a0000180fb00000006000000eb002f
:1048080082fb200021fb2000617178000000e80095
:10481800e60f5000fcff3a000000060081fb200074
:10482800e2fb2000914f100002003a001000200027
:10483800040037008100e800828f5000f9ff3a0039
:104848000000eb000000060021fb200082fb200096
:10485800914f100002003a001000200004003700b9
:104868008100e800828f5000f9ff3a000000eb0059
:104878000000060010c0b300521207000000e0005c
:1048880001003a00709d88000000060020fb20000f
:104898000041eb0081fb200002587800810f500096
:1048a80009003200fcff3700107e8000837078001a
:1048b8000241e8008280fb00007e8000810f5000ea
:1048c80006003600f8ff37000041eb008000eb00df
:1048d80082417800c00fe200f3ff3a0000000600b2
:1048e80000417800b1fa200091407800e1cf5000f3
:1048f800050032008042eb00f0fa200013c0b3003c
:1049080090cf110001003a0015c0b300a0fa2000b2
:1049180016c0b300904f1300040032000042eb00b1
:10492800e0fa2000904f130001003a0014c0b300d1
:10493800c0fa200013c0b30090cf11000500320068
:104948008041eb0000fb200016c0b300904f13001d
:1049580001003a0013c0b30064405100f94f500001
:1049680077003e00e14f520003003a0063405100d7
:104978008080fb004a023700e1cf510058003a001e
:104988000280fb000100200064005000e080580015
:104998000041eb00f90f5000e08f58004e003e0038
:1049a800006001001b0037001c0037001d003700a5
:1049b8001e0037001f003700200037002100370095
:1049c8002200370023003700240037002500370075
:1049d8002600370027003700280037002900370055
:1049e8002a0037002b0037002c0037002d00370035
:1049f8002e0037002f003700300037003100370015
:104a0800320037003300370000003700c2c2b3005d
:104a180031003700e2c1b3002f00370002c3b300f2
:104a28002d003700e2c2b3002b00370002c2b300ea
:104a38002900370022c1b3002700370012c2b30093
:104a48002500370022c2b3002300370032c2b3006a
:104a58002100370072c1b3001f00370042c2b30003
:104a68001d00370052c2b3001b00370062c2b300fa
:104a78001900370022c3b3001700370012c3b30070
:104a88001500370082c1b3001300370092c1b3008c
:104a98001100370002c1b3000f00370032c1b30064
:104aa8000d003700a2c1b3000b00370042c1b300ac
:104ab8000900370062c1b30007003700f2c2b30033
:104ac8000500370012c1b30003003700d2c2b3009b
:104ad8000100370052c1b3008280fb00f0013700ab
:104ae800b6d3bf00e14f500005003a000104e000d2
:104af8000f003a00af4fe200090032000c00370007
:104b08000004e0000a003a00e1cf5000040032003f
:104b1800f0fa200011c0b30090cf100004003a0052
:104b2800d3c3b300034041008080fb00dc013700a1
:104b3800d6c5b300064041008080fb00d80137008d
:104b48007e405100ea4f500046003e000504e00058
:104b5800330032000280fb00010020007e0050007c
:104b6800e08058000041eb00e90f5000e08f58004a
:104b780029003e00006001000b0037000c003700e0
:104b880011003700190037001a0037001b003700e2
:104b98001c0037001d0037001e00370000003700da
:104ba80092c2b3001c00370012c2b3001a003700cb
:104bb800514eed0022c2b300e14f500016003600fe
:104bc80002c4b3001400370051cebf0032cab3008c
:104bd800e14f50001000320052cfb300e24f5000b6
:104be8000d00320032c2b3000b00370042c2b300de
:104bf8000900370052c2b30007003700e2c5b3000e
:104c08000500370062c2b30003003700a2c2b30038
:104c18000100370082c2b3008280fb00a001370088
:104c280001c3b30070c2b300804f51000b003200c3
:104c38000040e800804f510007003a0001c2b3006d
:104c480040e5200012c0b300904f1100030032006d
:104c5800d1c0b30001003700f34041008180fb0060
:104c68008f01370070cdb30000404100ef4f500076
:104c780066003e000280fb00010020009002b100a7
:104c88000180b1000041eb00ef0f5000e08f5800a9
:104c98005c003e000060010011003700130037007f
:104ca800140037000c003700180037001c003700cc
:104cb8002000370024003700280037000f00370095
:104cc8002b0037002d003700350037003d00370036
:104cd800410037004500370002c2b30049003700e1
:104ce80032e52000124178004600370082c0b30048
:104cf8004400370092c0b3004200370032c2b3000c
:104d08000504e0003f0032003d003700d2c2b30086
:104d18000504e0003b003200f2c5b300390037005b
:104d2800d2c3b3000504e00036003200b2c2b300bb
:104d380034003700b2c5b3000504e000310032008a
:104d4800b2c7b3002f003700d2c5b3000504e00096
:104d58002c003200d2c7b3002a003700c2c5b30006
:104d68000504e00027003200c2c7b3002500370061
:104d7800b0c3b300054150002200370072c2b3002f
:104d88000504e0001f003200514eed0002c4b300dc
:104d9800e14f50001b00360022c2b3001900370053
:104da80002c6b3000504e0001600320082cfb3004b
:104db80010e5200023c0b30090cf1100110032008d
:104dc8000f003700c2c2b3000504e0000d00320036
:104dd800c2c3b3000b003700e2c2b3000504e00011
:104de80008003200e2c3b30006003700f2c2b30085
:104df8000504e00003003200f2c3b30001003700ed
:104e0800e2c7b3008280fb002501370060ccb30005
:104e180000404100fe4f5000cb003e00e1cf510062
:104e28002a003a000280fb0001002000a003b10024
:104e38000180b100eb0f5000e08f5800bd003e002c
:104e4800006001000d0037000e0037000f0037002a
:104e58001000370011003700120037001300370028
:104e6800140037001500370016003700b30037006c
:104e780000003700c1c8b300b100370081c6b300d5
:104e8800af00370091c6b300ad003700a1c6b3002c
:104e9800ab003700b1c6b300a9003700c1c6b300e4
:104ea800a7003700d1c6b300a5003700e1c6b3009c
:104eb800a3003700f1c6b300a100370001c7b30053
:104ec8009f00370011c7b3009d0037000280fb0028
:104ed80001002000a003b1000180b100fe0f5000c6
:104ee800e08f580093003e00006001002c0037005e
:104ef80032003700380037003e00370044003700e2
:104f08004a00370050003700560037005c00370071
:104f180062003700680037006e0037007b003700fa
:104f28008400370083003700190037001400370069
:104f38000f00370018003700130037000e00370045
:104f48006a0037006b0037006c0037006d003700cf
:104f580078003700750037006e0037006f003700a3
:104f68007000370000003700d1c0b300740037006c
:104f780091c4b3007200370011c5b3007000370048
:104f880071c4b3006e003700f1c4b3006c00370081
:104f980021c5b3006a00370031c5b3006800370087
:104fa80001c8b30040e5200076c0b300904f13005d
:104fb80063003200b1c3b3006100370011c8b30009
:104fc80040e5200072c0b300904f11005c00320031
:104fd800c1c3b3005a00370021c8b30040e5200020
:104fe80073c0b30090cf110055003200d1c3b30095
:104ff8005300370031c8b30040e5200076c0b30045
:10500800904f13004e003200e1c3b3004c0037004c
:1050180041c8b30040e5200072c0b300904f1100b2
:1050280047003200f1c3b3004500370051c8b30050
:1050380040e5200073c0b30090cf1100400032005b
:1050480001c4b3003e00370061c8b30040e520004a
:1050580076c0b300904f13003900320011c4b3007a
:105068003700370071c8b30040e5200072c0b300b4
:10507800904f11003200320021c4b30030003700d5
:1050880081c8b30040e5200073c0b30090cf110081
:105098002b00320031c4b3002900370091c8b30097
:1050a80040e5200076c0b300904f13002400320082
:1050b80041c4b30022003700a1c8b30040e5200076
:1050c80072c0b300904f11001d00320071c5b300cb
:1050d8001b00370081c5b30040e5200073c0b30052
:1050e80090cf110016003a0014003700d1c4b30065
:1050f80013003700b1c4b3001100370001c5b30075
:105108000f00370081c4b3000d00370041c5b3005c
:105118000b003700a1c2b30009003700d1c2b300a9
:1051280007003700b1c2b30005003700f1c2b30071
:10513800030037008040eb0001003700b1c8b3001e
:105148008180fb005600370070cab3000040410060
:10515800ea4f50002c003e00b753e2002a003a0004
:105168000280fb00010020009005b1000180b10021
:10517800ea0f5000e08f58000e003e00006001006a
:10518800140037001d0037000e00370019003700e3
:1051980008003700150037000c00370003003700ff
:1051a800060037000d0037000e00370080c4b3003a
:1051b800130037000040eb001100370090c4b30023
:1051c8000f00370010c5b3000d00370070c4b300de
:1051d8000b003700f0c4b3000900370020c5b30046
:1051e8000700370030c5b30005003700d0c4b3004e
:1051f80003003700b0c4b3000100370000c5b30096
:105208008080fb0026003700e84f500008003e0071
:10521800703b210016c0b300904f130004003a0001
:1052280080cdb300004041008080fb001c003700a7
:1052380020c6b300804f510006003a000103200049
:10524800703b210012c0b300904f110014003200cf
:105258001200370030c6b300804f510006003a00f4
:10526800e1022000703b210013c0b30090cf110071
:105278000b0032000900370040c6b300804f5100d0
:1052880006003a00684050000504e00001003200c2
:10529800c0c7b3008080fb00010037008000eb002e
:1052a80001007800000006008040780060ccb30060
:1052b80000c04000eb4f500009003e0040e52000d0
:1052c80071c0b30090cf100016003a00ac4fe20056
:1052d80014003a00b04fe20010003200110037000d
:1052e800f94f50000f00360070cab30000c04000ec
:1052f800ea4f500002003e00b753e20009003200b6
:10530800c0fa200011c0b30090cf10000500320091
:1053180000fb200090cf1000020032000000eb00dc
:10532800010037001000200000000600889fbe0022
:105338008a9fbe008c9fbe00ca3021001a457800a3
:105348000a04e00004003a008a4578000006eb00f1
:105358008c0678007a0037008044eb008945780095
:105368008006eb000d0678000d047800d0998000c7
:1053780080014400130178000200e00053003a0065
:1053880023109000b3109000e20f5000e08f5800f7
:1053980026003a0013009000e70f50004b003a0037
:1053a80003689000a2c0b3000440bc00009a8000cb
:1053b80000014100b2009000000e2000808f5000d4
:1053c8005b003a00c200900067004000808f5000e8
:1053d80057003a00c35d90000b80fb004300dd00de
:1053e800e199800001004000100090006700400033
:1053f8004300de00b07c8800635890000080fb000a
:10540800c07c8800236090009aefb7007358900022
:105418009befb700036090009cefb7008a1207006b
:105428009eefb7001c00200041003700e00f50003d
:10543800e08f58003e003a0013009000e70f50003c
:105448003b003a0003689000a2c0b3000440bc00cf
:10545800009a800080004100310090000000e000c8
:1054680033003a00c1009000f00f2000808f5000f8
:105478002f003e00c35d90000b80fb004300dd0061
:10548800e199800001004000100090006700400092
:105498004300de00007d8800635890000080fb0018
:1054a800107d880023609000a4efb7007358900027
:1054b800a5efb70003609000a6efb70062120700df
:1054c800a8efb7001d00200019003700e10f5100b8
:1054d80017003a0013009000e80f500014003a003b
:1054e800c35d90000b80fb004300dd00e199800064
:1054f8000100400020009000670040004300de00eb
:10550800607c8800635890000080fb00707c8800f5
:105518002360900090efb7007358900091efb700a8
:105528000360900092efb7004712070094efb700ae
:105538008944e800e802b000894f55008bff3a0023
:10554800d030210011c0b30090cf100013003a00f2
:10555800be2fef000b80fb004300dd00e1998000c7
:105568000100400010009000670040004300de008a
:10557800007e8800f5ec0700107e8800e096800029
:10558800207e8800e18f560004003a00e10f5600a3
:1055980002003a000c007800010037000000eb0020
:1055a8004f06be004f05be004f04be0000000600b7
:1055b800a8c0bf0081cfb300014060000004a00074
:1055c800a8e0b7008500a9000a21ef00803e20006e
:1055d8007008880000012a00900888009500a8003b
:1055e80000000600809fbe00829fbe00841f7800d6
:1055f8003400f80000002000a001880008c2bf00a5
:105608000028a3002e00320008c2bf0002c2b30067
:10561800824060000a003a0008c2bf000018a300d8
:10562800070032000010800000e42000a4cfb3007f
:10563800904f120002003a000100780040eeb700d7
:1056480040cebf0014003a00d1cfbf008081fb00dc
:10565800928680000200e0000900320021fd20004f
:105668000100410011427800f4f89f008100e80031
:10567800808f5000fbff3a000200e9009086880006
:105688000041eb009186800010fd200082707800b8
:1056980083407800070037008040eb00e14f50005e
:1056a80004003a00210d21009140780020c0b30089
:1056b80040eeb7000180fb00101088001f00370083
:1056c80008c2bf000058a30007003a0008c2bf0084
:1056d8000018a3001900320000108000a0cfb3000a
:1056e80040eeb7001500370008c2bf000018a3003d
:1056f8001200320000e42000a1cfb30090cf1000c8
:105708000c003a00001080000004e00002003a009b
:1057180040eeb70009003700e14f500002003a00a0
:1057280040eeb70005003700a0cfb30040eeb70049
:1057380002003700a0cfb30040eeb70008c2a900ae
:105748000782a8008600a9003400f9004f027800fb
:105758004f01be004f00be0000400600809fbe0003
:10576800829fbe003400f80000002000a0018800dd
:1057780087c0a90033c2bf000008a30004003a0094
:105788000000000033c2bf000008a300fcff320085
:1057980032c2bf000018a300020032003222a90062
:1057a8008400370032c2bf000028a3007e00320008
:1057b800b01180007f003700b01180008041780070
:1057c800ea4f500078003200fa4f500003003a00c8
:1057d80010c0b300d8f0b70073003700920d210055
:1057e800124178000204e0006f003a00ed4f5000cb
:1057f8001f003a0010c0b300d9f0b70002007800cb
:10580800d4f0b700d1968000a00d210082707800f6
:1058180040c2b300da50e30063003200d650e20021
:1058280061003a00a0002000a011880033c2bf0028
:105838000008a30004003a000000000033c2bf00c3
:105848000008a300fcff3200d0002000a01188004f
:1058580033c2bf000008a30053003a000000000054
:1058680033c2bf000008a3004f003a00fbff370017
:10587800e84f50002d003a00d29680008040eb009f
:1058880040c2b300da50e3000100320011c0b30097
:10589800d6d0bf000080fb000000e9004f00de000a
:1058a800010060008200ea0082807000cf08de00fc
:1058b800010060003c00320080002000a011880038
:1058c80033c2bf000008a30004003a000000000033
:1058d80033c2bf000008a300fcff32000002200012
:1058e800a011880033c2bf000008a30004003a00da
:1058f8000000000033c2bf000008a300fcff320014
:1059080080002000a011880033c2bf000008a30057
:1059180004003a000000000033c2bf000008a300e2
:10592800fcff3200da32ed001f00370000ceb30072
:1059380000c04100e1c5b300814f50000c003e009b
:10594800d0968000a20d210003707900da32ec00b5
:10595800d19680000040eb0080707900d0968000de
:10596800e11f2000810f500001003600d196880009
:1059780040c2b300da50e3000b003200d650e20018
:1059880009003a000300fb00a011880033c2bf00e1
:105998000008a30004003a000000000033c2bf0062
:1059a8000008a300fcff320032c2bf000008a300b9
:1059b80081ff3a003622ef003400f9004f01be00a3
:1059c8004f00be0000400600801f78003400f80039
:1059d80000002000a001880085c0bf000008a300c7
:1059e800060032008500a900709d8000e20f50007b
:1059f80002003a0030002000709d88003400f90051
:105a08004f00780000400600000178000104e00023
:105a180004003a00d650e20014003a00b619070014
:105a280012003700e1cf500004003a00d650e200df
:105a38000e003a00b01907000c003700e2cf500002
:105a480002003a00ac19070008003700e9cf5000ff
:105a580006003a00600d210011c0b30090cf10007d
:105a68000200320002007800a319070000000600b7
:105a7800620020005d53e3000d003a000140780009
:105a8800cd06070080007800420120000000e000f9
:105a980007003200204090000054a100a040980068
:105aa800214090000064a100a04098000001eb0094
